:020000040000FA
:100000000A128A11FC2F00308A000408840A820731
:1000100000340034003400343F34CD34CC344C341C
:100020003D340A34D734A3343B346F3412340334B0
:100030003A341734B73451343834AC34C534A73477
:100040003634BD343734063435349534BF34563401
:1000500033347734CC34AB3431345F3470340934D6
:100060003034FF34E6345B342E347A346134633414
:0800700068346134723400347D
:100E1E00F2008312031307127208803E0A128A111F
:100E2E0043270A128A110800831203130712013096
:100E3E000A128A1143270A128A110D30F300FB3071
:100E4E00F200F20B282FF30B282F2D2F08001B304A
:100E5E00831603138500F030860087018801831204
:100E6E0003138601870188018316031381130B1068
:100E7E008B158B170B170800F1004230F000F00BAA
:100E8E00462F00007108F00004300310F00CFF3EF6
:100E9E00031D4C2F70080F3983120313860087161B
:100EAE00871271080F398600871687120800F30023
:100EBE00831203130716732F730884000A128A1104
:100ECE0003200A128A110A128A1143270A128A1162
:100EDE000130F2007208F307730884000A128A11B7
:100EEE0003200A128A11003A031D7E2F7F2F632FD3
:100EFE0008000A128A112E270A128A110A128A1162
:100F0E00AC270A128A110A128A111B270A128A1199
:100F1E0000300A128A110F270A128A112D300A1276
:100F2E008A115E270A128A111A30F9005E30F80013
:100F3E006E30F700F70BA12FF80BA12FF90BA12F95
:100F4E0000009B2F0A128A11002883120313071226
:100F5E0087126230F5006530F400F40BB42FF50BF8
:100F6E00B42FB92F0330831203138600871687120E
:100F7E002130F5007630F400F40BC32FF50BC32FA0
:100F8E0000008312031387168712C730F400CF2F89
:100F9E00F40BCE2FD22FD32F831203138716871263
:100FAE00C730F400DA2FF40BD92FDD2FDE2F0230ED
:100FBE008312031386008716871228300A128A11AD
:100FCE0043270A128A110C300A128A1143270A1279
:100FDE008A110A128A111B270A128A1106300A1266
:100FEE008A1143270A128A11080083010A128A11F4
:020FFE00802F42
:02400E00F23F7F
:00000001FF
