:020000040000FA
:100000000A128A11FC2F00308A000408840A820731
:0C001000003474346534733474340034EC
:100E4400F2008312031307127208803E0A128A11F9
:100E540041270A128A110800831203130712013072
:100E64000A128A1141270A128A110D30F300FB304D
:100E7400F200F20B3B2FF30B3B2F402F0800F10045
:100E84004230F000F00B442F00007108F0000430F1
:100E94000310F00CFF3E031D4A2F70080F39831214
:100EA400031386008716871271080F398600871688
:100EB40087120800F300831203130716712F7308B7
:100EC40084000A128A1103200A128A110A128A1152
:100ED40041270A128A110130F2007208F3077308DD
:100EE40084000A128A1103200A128A11003A031D8F
:100EF4007C2F7D2F612F08001B3083160313850080
:100F0400F03086008701880183120313860187016C
:100F140088018316031381130B108B158B170B1782
:100F24000A128A11AC270A128A110A128A112E2770
:100F34000A128A1100300A128A1122270A128A110F
:100F440001300A128A115C270A128A11A82F0A1288
:100F54008A11002883120313071287126230F500E6
:100F64006530F400F40BB42FF50BB42FB92F033014
:100F7400831203138600871687122130F50076301A
:100F8400F400F40BC32FF50BC32F000083120313DB
:100F940087168712C730F400CF2FF40BCE2FD22F31
:100FA400D32F8312031387168712C730F400DA2F66
:100FB400F40BD92FDD2FDE2F0230831203138600AA
:100FC4008716871228300A128A1141270A128A11B9
:100FD4000C300A128A1141270A128A110A128A1144
:100FE4002E270A128A1106300A128A1141270A1280
:0C0FF4008A11080083010A128A117E2F66
:02400E00F23F7F
:00000001FF
