:020000040000FA
:060000000A128A110C280F
:10000800FE00030EF5000A08F6000A128A110C29F0
:100018000A128A110F28FD01F701F801F901FA0106
:10002800FB01FC0183120313A001A101A201A3019A
:10003800A401A501A601A701A801A901AA01AB0174
:10004800AC01AD01AE0183010A128A118728003084
:100058008A000408840A820700340034003480349B
:100068003F341834723431343F34F034FD3475344D
:100078003E344734583463343D34583495341D3451
:100088003C348234C434AE343A34A834783421341D
:100098003934EF34933480343734A0349234A7346D
:1000A800353446345634153434340034003400348E
:1000B8000034C434FF347F343F348034EF34FF34A9
:1000C800BE349034E134A9343E34EC34823476348E
:1000D800BE348234AD342B343E340E343C34C33415
:1000E800BD348734D13413343D3441347834D33477
:1000F800BB34303430342E343034003430342E3481
:10010800303430340034523083120313AF002F08D8
:10011800BB004D30AF002F08BC005230AF002F0895
:10012800BD000030B5000030B4000030B30000302E
:10013800B2004130B9007330B8003330B700333003
:10014800B6001B30831603138500F0308600870144
:10015800880183120313860187018801831603131C
:1001680081130B108B158B130B138312031304309D
:1001780085060D3083120313B100AF30B000B530DF
:10018800AF00AF0BC528B00BC528B10BC528CC28CC
:10019800B9280A128A110C280730F1007D30F000C6
:1001A800F00BD428F10BD42883120313060E01395F
:1001B800F000060EF100710C0139F20072077004AC
:1001C800F3007308F4007B08031DEB28EC280429CE
:1001D8007403031DF028F128F828FF30F9070318E5
:1001E800FA0AFF30FA07042902307406031DFD28B5
:1001F800FE2804290130F9070318FA0A0030FA0723
:100208007408F0007008FB00060886000B10080050
:100218000B1C0F29102916290A128A11D0200A123C
:100228008A110B1076088A00750E8300FE0E7E0E6A
:020238000900BB
:02400E00F23F7F
:00000001FF
