:020000040000FA
:060000000A128A110C280F
:10000800FE00030EF5000A08F6000A128A150128F8
:100018000A128A110F28FB01F701F801F901FA0108
:100028008317D2308400E3300A168A1530210A1269
:100038008A1183010A128A1121285E308316031758
:10004800AD002D08B1005930AD002D08B2005E306A
:10005800AD002D08B3000030B7000030B600003006
:10006800B5000030B4004130D1007330D0003330D7
:10007800CF003330CE001B30831603138500F030D9
:10008800860087018801831203138601870188018E
:100098008316031381130B108B158B170B170A1676
:1000A8008A15E6220A128A110A168A1105200A12EE
:1000B8008A110A168A1538210A128A118312031323
:1000C800051A672868287028051E6B286C28682878
:1000D800043085060130FB06831603174D08803A65
:1000E800FF0090307F02031D7B2800304C02031C68
:1000F8007E287F28832883160317CC01CD01831619
:100108000317CD1F882889288D28FF30CC000F3091
:10011800CD004C08831203138800831603174D087B
:100128000F3983120313870001300A168A15C0217C
:100138000A128A1183120313210883160317CB00AE
:1001480083120313200883160317CA003B30831257
:100158000313C400A030C3002730C2005230C100CE
:10016800831603174A0883120313A0008316031784
:100178004B0883120313A100A201A30100300A1641
:100188008A159C250A128A11831203132308C800B2
:100198002208C7002108C6002008C5000A128A11D3
:1001A80092240A128A118312031344088316031730
:1001B800C90083120313430883160317C800831268
:1001C8000313420883160317C70083120313410859
:1001D80083160317C600413083120313C40020306E
:1001E800C3000030C2000030C1008316031749085D
:1001F80083120313C80083160317480883120313D6
:10020800C70083160317470883120313C600831613
:100218000317460883120313C5000A128A11922491
:100228000A128A1183120313440883160317BF00A6
:1002380083120313430883160317BE0083120313A4
:10024800420883160317BD0083120313410883165F
:100258000317BC003F0883160313E900831603172E
:100268003E0883160313E800831603173D08831618
:100278000313E700831603173C0883160313E600ED
:10028800D43083160317AD002D0883160313EA0034
:100298000230EB000030EC000A128A154E200A12D8
:1002A8008A1140300A168A1543210A128A11D4305D
:1002B80083120313A2000130A3000A168A1597219E
:1002C8000A128A114D3083120313A2008030A30052
:1002D8000A168A1597210A128A11831603173708F6
:1002E80083160313E90083160317360883160313CE
:1002F800E80083160317350883160313E7008316EF
:100308000317340883160313E600D4308316031743
:10031800AD002D0883160313EA000230EB0000300D
:10032800EC000A128A154E200A128A1149300A1660
:100338008A1543210A128A11633083120313A2001B
:100348008030A3000A168A1597210A128A11D43020
:1003580083120313A2000130A3000A168A159721FD
:100368000A128A11653083120313A2008030A30099
:100378000A168A1597210A128A1100300A168A1558
:10038800C0210A128A118312031321088316031746
:10039800C50083120313200883160317C4003C30DA
:1003A80083120313C400F330C300DC30C2000530ED
:1003B800C10083160317440883120313A000831691
:1003C8000317450883120313A100A201A3010030FB
:1003D8000A168A159C250A128A1183120313230808
:1003E800C8002208C7002108C6002008C5000A1254
:1003F8008A1192240A128A1183120313440883165D
:100408000317BB0083120313430883160317BA00AC
:1004180083120313420883160317B90083120313C8
:10042800410883160317B800490883160313BC0054
:1004380083160317480883160313BB008316031794
:10044800470883160313BA00831603174608831652
:100458000313B900831603173B0883160313C00060
:10046800831603173A0883160313BF00831603176E
:10047800390883160313BE0083160317380883163A
:100488000313BD000A168A1546220A128A1183161A
:1004980003133C0883160317C300831603133B0892
:1004A80083160317C200831603133A08831603172B
:1004B800C10083160313390883160317C0004308C5
:1004C80083160313E90083160317420883160313E0
:1004D800E80083160317410883160313E700831601
:1004E8000317400883160313E600D4308316031756
:1004F800AD002D0883160313EA000130EB0000302D
:10050800EC000A128A154E200A128A1100300A16C7
:100518008A1543210A128A11D43083120313A200C8
:100528000130A3000A168A1597210A128A1153303E
:1005380083120313A2008030A3000A168A1597219C
:100548000A128A1183160317510883160313E90048
:1005580083160317500883160313E800831603173E
:100568004F0883160313E700831603174E088316F4
:100578000313E600D43083160317AD002D08831645
:100588000313EA000130EB000030EC000A128A1570
:100598004E200A128A1109300A168A1543210A12B6
:1005A8008A11633083120313A2008030A3000A1655
:1005B8008A1597210A128A11D43083120313A200D4
:1005C8000130A3000A168A1597210A128A1165308C
:1005D80083120313A2008030A3000A168A159721FC
:1005E8000A128A117B1CF92AFA2A8A2C831203130D
:1005F800061AFF2A002B4D2B3D30EB00CC30EA00C9
:10060800CC30E900CD30E800831603175108831277
:100618000313EF0083160317500883120313EE0029
:10062800831603174F0883120313ED00831603176D
:100638004E0883120313EC000A128A157C240A124E
:100648008A11831203136B0883160317D1008312D0
:1006580003136A0883160317D0008312031369086B
:1006680083160317CF008312031368088316031732
:10067800CE000D3083160317AF00AF30AE00B53093
:10068800AD00AD0B452BAE0B452BAF0B452B4C2BC3
:10069800912B861A502B512B912B3D308316031327
:1006A800BC00CC30BB00CC30BA00CD30B9008316CA
:1006B8000317510883160313C00083160317500845
:1006C80083160313BF00831603174F0883160313FB
:1006D800BE00831603174E0883160313BD000A16BF
:1006E8008A1546220A128A11831603133C088316B8
:1006F8000317D100831603133B0883160317D00092
:10070800831603133A0883160317CF0083160313BF
:10071800390883160317CE003D2B8316031751089B
:1007280083120313C8008316031750088312031398
:10073800C700831603174F0883120313C6008316D6
:1007480003174E0883120313C5004530C4007F30D9
:10075800C300F030C2000030C1000A128A1192248E
:100768000A128A11831203134408E2004308E100C5
:100778004208E0004108DF004130DE00F430DD00CF
:100788000030DC000030DB000A128A15DC210A1276
:100798008A11831203135E08EF005D08EE005C08FF
:1007A800ED005B08EC00831603174A088312031355
:1007B800A000831603174B0883120313A100A2019C
:1007C800A30100300A168A159C250A128A11831281
:1007D80003132308EB002208EA002108E900200897
:1007E800E8000A128A157C240A128A11831203135C
:1007F8006B0883160313BC00831203136A0883165D
:100808000313BB0083120313690883160313BA008A
:1008180083120313680883160313B9000A168A1192
:1008280019200A128A11831603133A08831603172C
:10083800CD0083160313390883160317CC0051081B
:1008480083120313A300831603175008831203139C
:10085800A200831603174F0883120313A1008316FF
:1008680003174E0883120313A0004130A700F43089
:10087800A6000030A5000030A4000A168A15F82446
:100888000A128A11031C492C4A2C542C4130831615
:100898000317D100F430D0000030CF000030CE0074
:1008A800003083120313A3000030A2000030A1001F
:1008B8000030A00083160317510883120313A70002
:1008C80083160317500883120313A6008316031711
:1008D8004F0883120313A500831603174E088312CB
:1008E8000313A4000A168A15F8240A128A11031C95
:1008F8007E2C7F2C6228003083160317D10000302D
:10090800D0000030CF000030CE00622883160317D5
:10091800CC01CD0162280A128A110C288312031314
:1009280044088039C9004908CE004408C90049076D
:10093800CA004A08D400C31FA22CA32CA42C541408
:1009480054080319A82CA92CB82C540A031DAD2C43
:10095800AE2CB62C0030C4000030C3000030C200FA
:100968000030C100C317C02C0030C4000030C300E1
:100978000030C2000030C10048088039C900490869
:10098800CE064808C9004907CA004A08D300C71F4D
:10099800CE2CCF2CD02C531453080319D42CD52C7F
:1009A800E42C530A031DD92CDA2CE22C0030C800A1
:1009B8000030C7000030C6000030C500C717EC2C57
:1009C8000030C8000030C7000030C6000030C50045
:1009D80053080319F02CF12CF62C5408031DF52CA0
:1009E800F62CFF2C0030C4000030C3000030C200D9
:1009F8000030C100F22F4108C9004908A00047088B
:100A08000A168A156E210A128A1183120313210805
:100A1800DA002008D9005908C900CA01CB01CC0165
:100A28004C08D2004B08D1004A08D0004908CF0032
:100A38005A08C900CA01CB01CC014C08D8004B08A0
:100A4800D7004A08D6004908D5004208C900490815
:100A5800A00046080A168A156E210A128A11831206
:100A680003132108DA002008D9005908C900CA016F
:100A7800CB01CC014908CF074A0803110318013EEE
:100A88000319472DD0074B0803110318013E03191A
:100A98004E2DD1074C0803110318013E0319552D9B
:100AA800D2075A08C900CA01CB01CC014908D507A9
:100AB8004A0803110318013E0319632DD6074B0892
:100AC80003110318013E03196A2DD7074C080311B7
:100AD8000318013E0319712DD8074308C9004908B6
:100AE800A00045080A168A156E210A128A11831277
:100AF80003132108DA002008D9005908C900CA01DF
:100B0800CB01CC014908CF074A0803110318013E5D
:100B180003198F2DD0074B0803110318013E031941
:100B2800962DD1074C0803110318013E03199D2D7A
:100B3800D2075A08C900CA01CB01CC014908D50718
:100B48004A0803110318013E0319AB2DD6074B08B9
:100B580003110318013E0319B22DD7074C080311DE
:100B68000318013E0319B92DD8070830C90003102E
:100B7800CF0DD00DD10DD20DC90BBB2D4208C90028
:100B88004908A00045080A168A156E210A128A111A
:100B9800831203132108DA002008D9005908C90074
:100BA8005A08CA00CB01CC014908CF074A080311EB
:100BB8000318013E0319E12DD0074B080311031850
:100BC800013E0319E82DD1074C0803110318013E13
:100BD8000319EF2DD2074108C9004908A0004608AB
:100BE8000A168A156E210A128A1183120313210824
:100BF800DA002008D9005908C9005A08CA00CB01F0
:100C0800CC014908CF074A0803110318013E03190C
:100C18000E2ED0074B0803110318013E0319152E99
:100C2800D1074C0803110318013E03191C2ED207E3
:100C38000830C9000310CF0DD00DD10DD20DC90B4E
:100C48001E2E4108C9004908A00045080A168A1541
:100C58006E210A128A11831203132108DA00200870
:100C6800D9005908C9005A08CA00CB01CC01490863
:100C7800CF074A0803110318013E0319442ED00771
:100C88004B0803110318013E03194B2ED1074C08DA
:100C980003110318013E0319522ED2074208C90056
:100CA8004908A00047080A168A156E210A128A11F7
:100CB800831203132108DA002008D9005908C90053
:100CC8005A08CA00CB01CC014908D5074A080311C4
:100CD8000318013E0319712ED6074B080311031898
:100CE800013E0319782ED7074C0803110318013E5B
:100CF80003197F2ED8074308C9004908A0004608F1
:100D08000A168A156E210A128A1183120313210802
:100D1800DA002008D9005908C9005A08CA00CB01CE
:100D2800CC014908D5074A0803110318013E0319E5
:100D38009E2ED6074B0803110318013E0319A52E52
:100D4800D7074C0803110318013E0319AC2ED80726
:100D58004308C9004908A00047080A168A156E21E9
:100D68000A128A11831203132108DA002008D90015
:100D78005908C9005A08CA00CB01CC010830031031
:100D8800C90DCA0DCB0DCC0DFF3E031DC32E49085E
:100D9800D5074A0803110318013E0319D42ED607B4
:100DA8004B0803110318013E0319DB2ED7074C0823
:100DB80003110318013E0319E22ED8074F08C90092
:100DC8005008CA005108CB005208CC001830031054
:100DD800CC0CCB0CCA0CC90CFF3E031DEB2E4908EA
:100DE800D5074A0803110318013E0319FC2ED6073C
:100DF8004B0803110318013E0319032FD7074C08AA
:100E080003110318013E03190A2FD8070830C90037
:100E18000310CF0DD00DD10DD20DC90B0C2F5408D6
:100E28005307C900CA01CA0D4908823ED9004A08B9
:100E38000318013EFF3EDA003E2F0130C9000310BF
:100E4800D50DD60DD70DD80DC90B232FD21F2D2F99
:100E58002E2F2F2F55140130C9000310CF0DD00DA0
:100E6800D10DD20DC90B312FFF30D9070318DA0A7B
:100E7800FF30DA07D71F412F422F212FD301D21F6E
:100E8800462F472F632FFF304F05C900FF3050050D
:100E9800CA00FF305105CB007F305205CC004C080A
:100EA8004B044A04490403195A2F5B2F5E2FD301C0
:100EB800D30A632F551C612F622F632F5B2F5308B2
:100EC8000319672F682F992F0130D50700300318B1
:100ED8000130D607003003180130D7070030031857
:100EE8000130D807581C792F7A2F992F5508C90037
:100EF8005608CA005708CB005808CC000130CD006E
:100F08004C0DCC0CCB0CCA0CC90CCD0B842F4C0847
:100F1800D8004B08D7004A08D6004908D500013048
:100F2800D9070318DA0A0030DA075A08803AFF00AE
:100F380080307F02031DA22FFF305902031CA52F0A
:100F4800A62FB12F7F3083120313D8008030D7002B
:100F58000030D6000030D500E62F831203135A085C
:100F6800803AFF0080307F02031DBC2F01305902F8
:100F78000318BF2FC02FCC2F003083120313D800C3
:100F88000030D7000030D6000030D500CE01E62F63
:100F9800831203135908C9004908D400FF30D50546
:100FA800FF30D6057F30D7050030D805541CDD2F1B
:100FB800DE2FDF2FD7175408C9000310490CCA00C9
:100FC8004A08D8004E08C9004908D8045808C4007F
:100FD8005708C3005608C2005508C100080083120C
:100FE800031323082204210420040319FC2FFD2FD6
:080FF800FF2F8030A306080062
:101002000B1C042805280B280A128A1512200A1222
:101012008A150B1076088A00750E8300FE0E7E0E6E
:1010220009000730F1007D30F000F00B1628F10BBB
:10103200162883120313060E0139F000060EF10082
:10104200710C0139F20072077004F3007308F400A6
:101052007908031D2D282E2846287403031D3228E3
:1010620033283A28FF30F7070318F80AFF30F80749
:10107200462802307406031D3F28402846280130C6
:10108200F7070318F80A0030F8077408F000700830
:10109200F900060886000B1008008316031369087E
:1010A200BC006808BB006708BA006608B9000A16E7
:1010B2008A1119200A128A15831603133A08831615
:1010C2000317A60083160313390883160317A50016
:1010D200250883120313A000831603172608831220
:1010E2000313A1000030A11BFF30A200A3000130B6
:1010F2000A168A159C250A128A15831203132308DD
:1011020083160313BC0083120313220883160313EE
:10111200BB0083120313210883160313BA00831240
:101122000313200883160313B9006908C000680876
:10113200BF006708BE006608BD000A168A1546226F
:101142000A128A15831603133C0883160317AC0090
:10115200831603133B0883160317AB00831603138E
:101162003A0883160317AA00831603133908831655
:101172000317A900260883160313C5008316031755
:10118200250883160313C4006A08ED006D08C60023
:101192000130C7000030C8000A168A155B240A1203
:1011A2008A1583160313450883160317A8008316AE
:1011B2000313440883160317A700831603136B084F
:1011C2006C040319E528E628DB292E30ED0083168E
:1011D20003172708831603136A07EE006E088400BC
:1011E2006D08831780006B0883120313A000831617
:1011F20003136C0883120313A1000030A11BFF30FC
:10120200A200A30001300A168A159C250A128A152B
:1012120083120313230883160317A00083120313F8
:101222002208831603179F008312031321088316D3
:1012320003179E00831203132008831603179D00D1
:10124200200883160313E400831603171F0883166E
:101252000313E300831603171E0883160313E20029
:10126200831603171D0883160313E1004130E000C3
:101272002030DF000030DE000030DD000A168A1167
:101282003E230A128A158316031360088316031776
:10129200A400831603135F0883160317A3008316A3
:1012A20003135E0883160317A200831603135D0857
:1012B20083160317A1002C0883120313C40083169C
:1012C20003172B0883120313C300831603172A087C
:1012D20083120313C2008316031729088312031310
:1012E200C10083160317240883120313C800831650
:1012F2000317230883120313C70083160317220858
:1013020083120313C60083160317210883120313E3
:10131200C5000A128A1192240A128A158312031333
:10132200440883160317AC00831203134308831681
:101332000317AB0083120313420883160317AA0094
:1013420083120313410883160317A9002C0883167E
:101352000313BC00831603172B0883160313BB0069
:10136200831603172A0883160313BA00831603177A
:10137200290883160313B9000A168A1119200A12C2
:101382008A15831603133A08C5003908C400831668
:1013920003172708831603136A07013EED006D0841
:1013A200C6006C08C8006B08C7000A168A155B24C1
:1013B2000A128A1508008312031362088039E300B7
:1013C200630883160313A400831203136208E30065
:1013D2006307E400640883160313AB00831203134C
:1013E200E11FF429F529F829831603132B14831618
:1013F20003132B080319FE29FF29122A2B0A031DA6
:10140200032A042A0E2A003083120313E20000305A
:10141200E1000030E0000030DF008312E117E2015A
:101422001C2A003083120313E2000030E100003076
:10143200E0000030DF005E088039E30063088316B5
:101442000313A406831203135E08E3006307E40098
:10145200640883160313AC0083120313DD1F322AC0
:10146200332A362A831603132C14831603132C08EB
:1014720003193C2A3D2A502A2C0A031D412A422ADA
:101482004C2A003083120313DE000030DD000030EE
:10149200DC000030DB008312DD17DE015A2A003047
:1014A20083120313DE000030DD000030DC00003068
:1014B200DB005E085D045C045B04031D612A622A92
:1014C2007F2A0030E2000030E1000030E00000300E
:1014D200DF008030E1047F30E20483160313240826
:1014E20083120313E3006308E2046208DE0061086A
:1014F200DD006008DC005F08DB007B2C8316031331
:101502002B08031D852A862A912A00308312031391
:10151200DE000030DD000030DC000030DB007B2C20
:101522002B0883120313E300E4016408E600831628
:1015320003132C08831203136302E500031CE60362
:1015420065087F3E83160313A50083120313660802
:101552000318013E003E83160313A60083120313F1
:10156200620883160313A300831203136108831610
:101572000313A20083120313600883160313A1004E
:10158200831203135F0883160313A0000030831233
:101592000313E2000030E1000030E0000030DF0021
:1015A200003083160313AA000030A9000030A800FF
:1015B2000030A700AC01632B2C080319E12AE22AB0
:1015C200112B013083120313E3000310831603135C
:1015D200A00DA10DA20DA30D83120313E30BE62AA6
:1015E2000130E3000310DF0DE00DE10DE20DE30B2E
:1015F200F32A83160313AA1FFF2A002B032B83123D
:1016020003135F1401308312E300031083160313E4
:10161200A70DA80DA90DAA0D83120313E30B062B28
:1016220083125E08831603132302031D2E2B8312DB
:1016320003135D08831603132202031D2E2B83124C
:1016420003135C08831603132102031D2E2B83123E
:1016520003135B08831603132002031C312B322B66
:101662005B2B2A17831203135B0883160313A00252
:10167200831203135C08031C5C0F402B432B83165D
:101682000313A102831203135D08031C5D0F4A2B8F
:101692004D2B83160313A202831203135E08031C4D
:1016A2005E0F542B572B83160313A30283120313CB
:1016B20083160313013083120313E30063088316B6
:1016C2000313AC071A302C02031C682B692BDD2A8A
:1016D20023082204210420040319702B712B9B2B55
:1016E20027149B2B0130E3000310DF0DE00DE10D09
:1016F200E20DE30B752B83160313AA1F812B822B9A
:10170200852B831203135F1401308312E30003104D
:1017120083160313A70DA80DA90DAA0D8312031397
:10172200E30B882BFF3083160313A5070318A60AC1
:10173200FF30A60783120313E11FA02BA12B732BEB
:1017420083160313AC01AA1FA72BA82BD42BFF309F
:10175200270583120313E300FF30831603132805C2
:1017620083120313E400FF30831603132905831247
:101772000313E5007F30831603132A058312031334
:10178200E60066086504640463040319C92BCA2BC6
:10179200CF2B83160313AC01AC0AD42B5F1CD22BC4
:1017A200D32BD42BCA2B831603132C080319DA2B41
:1017B200DB2B102C013083120313DF0700300318D8
:1017C2000130E007003003180130E1070030031850
:1017D2000130E207621CEE2BEF2B102C5F08E300B6
:1017E2006008E4006108E5006208E6000130E700F5
:1017F200660DE60CE50CE40CE30CE70BF92B66082E
:10180200E2006508E1006408E0006308DF000130DF
:1018120083160313A5070318A60A0030A60783162A
:1018220003132608803AFF0080307F02031D1B2C21
:10183200FF302502031C1E2C1F2C2F2CFF30831679
:101842000313A5000030A600003083120313E20048
:101852000030E1000030E0000030DF0083160313A7
:101862002608803AFF0080307F02031D3A2C0130A7
:10187200250203183D2C3E2C4F2C83160313A50181
:10188200A601003083120313E2000030E1000030B1
:10189200E0000030DF0083160313A4018316031354
:1018A200250883120313E300630883160313AB00B6
:1018B2002B1C5C2C5D2C612C83120313E117672C0B
:1018C2007F3083120313E3006308E10583160313D9
:1018D2002B0883120313E3000310630CE400640873
:1018E200E20083160313240883120313E300630840
:1018F200E204762A0800831203136B0880398316E8
:101902000313AD002D08B500831203136B08831671
:101912000313AD002D07AE002E08B7008312031388
:10192200EA1F942C952C982C8316031337148316D4
:101932000313370803199E2C9F2CB22C370A031D60
:10194200A32CA42CAE2C003083120313EB00003026
:10195200EA000030E9000030E8008312EA17EB01E8
:10196200BC2C003083120313EB000030EA0000307D
:10197200E9000030E8006F08803983160313AD00D8
:101982002D08B600360835060319C82CC92CCA2CF6
:101992003517831203136F0883160313AD002D0747
:1019A200AE002E08B60083120313EE1FD92CDA2CD8
:1019B200DD2C83160313361483160313360803191A
:1019C200E32CE42CF72C360A031DE82CE92CF32C2B
:1019D200003083120313EF000030EE000030ED0000
:1019E2000030EC008312EE17EF01012D003083125C
:1019F2000313EF000030EE000030ED000030EC0089
:101A020083160313370836020318082D092D7F2D7C
:101A1200351F0C2D0D2D112D8030AD002D08B50672
:101A22003708AD002D08B8003608AD002D08B70004
:101A32003808AD002D08B600831203136808831618
:101A42000313AD002D08B800831203136C0883162C
:101A52000313AD002D0883120313E800831603134A
:101A62003808AD002D0883120313EC0069088316B1
:101A72000313AD002D08B800831203136D088316FB
:101A82000313AD002D0883120313E9008316031319
:101A92003808AD002D0883120313ED006A0883167F
:101AA2000313AD002D08B800831203136E088316CA
:101AB2000313AD002D0883120313EA0083160313E8
:101AC2003808AD002D0883120313EE006B0883164D
:101AD2000313AD002D08B800831203136F08831699
:101AE2000313AD002D0883120313EB0083160313B7
:101AF2003808AD002D0883120313EF008316031379
:101B0200B8013608AD00AE012E08B00037082D022C
:101B1200AF00031CB0033008803AFF0080307F0220
:101B2200031D952D1A302F02031C982D992DE62D99
:101B3200831203136B086A0469046804031DA22D4F
:101B4200A42D0130A52D003083160313AD002D08FE
:101B5200B800003083120313EB000030EA000030BB
:101B6200E9000030E800831603133608AD002D08A3
:101B7200B700EE2D381CBE2DBF2DC82D3808AD0084
:101B820003102D0C0138AE002E08B800CA2D031028
:101B9200B80C83120313681CCF2DD02DD32D8316BE
:101BA2000313B817013083160313AD008312031316
:101BB2006B0DEB0CEA0CE90CE80C83160313AD0B6E
:101BC200D72D0130AD002D08B70783160313360851
:101BD2003702031CED2DEE2DBB2D351BF12DF22D01
:101BE2004D2E3708031DF62DF72D022E00308312DD
:101BF2000313EB000030EA000030E9000030E80097
:101C0200FF2F831203136C08E8076D0803110318F2
:101C1200013E03190D2EE9076E0803110318013E58
:101C22000319142EEA076F0803110318013E031962
:101C32001B2EEB076B1C1E2E1F2E4B2F831603131E
:101C4200381C242E252E2E2E3808AD0003102D0C04
:101C52000138AE002E08B800302E0310B80C8312E3
:101C62000313681C352E362E392E83160313B8172C
:101C7200013083160313AD00831203136B0DEB0CBB
:101C8200EA0CE90CE80C83160313AD0B3D2E013070
:101C9200AD002D08B7074B2F831203136B08803A50
:101CA200FF006F08803A7F02031D612E6E086A02F0
:101CB200031D612E6D086902031D612E6C08680206
:101CC2000318642E652EF52EFF3083160313AD0024
:101CD200FF30AE00FF30AF00FF30B00083120313BD
:101CE2006C0883160313B100831203136D08831665
:101CF2000313B200831203136E0883160313B30097
:101D0200831203136F0883160313B40083120313A1
:101D1200680883160313B102831203136908031CB4
:101D2200690F942E972E83160313B20283120313A4
:101D32006A08031C6A0F9E2EA12E83160313B30298
:101D4200831203136B08031C6B0FA82EAB2E831692
:101D52000313B40283120313831603133108AD076E
:101D620032080318320FB62EB72EAE073308031807
:101D7200330FBC2EBD2EAF0734080318340AB00748
:101D8200300883120313EB00831603132F08831208
:101D92000313EA00831603132E0883120313E900C8
:101DA200831603132D0883120313E8008030831671
:101DB2000313AD002D08B506B809B80A3808031D8B
:101DC200E32EE42E032F013083120313E8070030C1
:101DD20003180130E907003003180130EA07003028
:101DE20003180130EB07032F6C08E8026D08031C8F
:101DF2006D0FE9026E08031C6E0FEA026F08031CE6
:101E02006F0FEB0283126B086A0469046804031DF6
:101E12000B2F0C2F462F831603133808031D122F86
:101E2200132F462F003083120313EB000030EA0019
:101E32000030E9000030E800FF2F01308316031361
:101E4200AD00031083120313E80DE90DEA0DEB0D4B
:101E520083160313AD0B222FB81F302F312F342FCF
:101E620083120313681483160313381C392F3A2F75
:101E72003D2F0314B80D3F2F0310B80D3708031977
:101E8200432F442F462F0130B7028312EA1F4A2FF5
:101E92004B2F1E2F83160313B601B81F512F522F3B
:101EA200642F38087F390319572F582F5D2F831657
:101EB2000313B601B60A642F83120313681C622F40
:101EC200632F642F582F83160313360803196A2FC2
:101ED2006B2FBF2F013083120313E8070030031862
:101EE2000130E907003003180130EA070030031817
:101EF2000130EB076B1C7E2F7F2FBF2F68088316E4
:101F02000313AD0083120313690883160313AE0093
:101F1200831203136A0883160313AF008312031399
:101F22006B0883160313B0000130B100300DB00C02
:101F3200AF0CAE0CAD0CB10B972F3008831203130C
:101F4200EB00831603132F0883120313EA00831690
:101F520003132E0883120313E900831603132D08BB
:101F620083120313E80083160313370A0319BA2FE7
:101F7200BB2FBF2F0130AD002D08B7078316031307
:101F8200370A0319C52FC62FCB2F3708031DCA2FB7
:101F9200CB2FDD2F003083120313EB000030EA0059
:101FA2000030E9000030E800831603133708031DF0
:101FB200DB2FDC2FDD2FB501371CE02FE12FE52FC2
:101FC20083120313EA17EB2F7F30AD002D08831223
:101FD2000313EA05831603133708AD0003102D0C13
:101FE200AE002E0883120313EB0083160313B51FF2
:0E1FF200FB2FFC2FFF2F83120313EB170800A9
:10200A0083120313071201300A168A154F210A1682
:10201A008A110D3083120313A300FB30A200A20B16
:10202A001428A30B142808000310831603133B0D6E
:10203A003C0DBD003D08C3004308031D2528262882
:10204A002F280030BC000030BB000030BA0000303E
:10205A00B90094283908BD003A08BE003B08BF0001
:10206A003C08C0001F300310C00CBF0CBE0CBD0CD6
:10207A00FF3E031D38283D08C1004108C200BB17B6
:10208A00FF30B905FF30BA05FF30BB050030BC058B
:10209A009630C302C31F522853286D284308803A3A
:1020AA00973E031859285A285B282628013003101E
:1020BA00BC0CBB0CBA0CB90CFF3E031D5C280130EA
:1020CA00BD003D08C307031D6B286C285B288428C4
:1020DA0020304302031C722873287F2826280130E7
:1020EA00BD000310B90DBA0DBB0DBC0DBD0B762892
:1020FA000130C3024308031D832884287428420838
:10210A000319882889289428B909BA09BB09BC097E
:10211A00B90A0319BA0A0319BB0A0319BC0A080047
:10212A0083160313470883120313BD008316031390
:10213A00460883120313BC0083160313450883124F
:10214A000313BB0083160313440883120313BA0054
:10215A00CD3083160313C800480883120313BE0048
:10216A000A168A1596230A168A1183160313CE1F96
:10217A00BF28C028FD28470883120313A30083162B
:10218A000313460883120313A20083160313450898
:10219A0083120313A1008316031344088312031343
:1021AA00A0000030A7000030A6000030A5000030D3
:1021BA00A4000A168A15F8240A168A110318E628B2
:1021CA00E728F228BF3083160313C7008030C60001
:1021DA000030C5000030C400CB2900308316031339
:1021EA00C7000030C6000030C5000030C400CB294B
:1021FA0000304E021D3003194D02031C0529062921
:10220A000729CB294708BC004608BB004508BA0085
:10221A004408B9000A168A1119200A168A11831667
:10222A0003133C0883120313A300831603133B080A
:10223A0083120313A200831603133A0883120313AB
:10224A00A10083160313390883120313A000013077
:10225A000A168A159C250A168A1183120313230863
:10226A0083160313CC008312031322088316031365
:10227A00CB0083120313210883160313CA008312A7
:10228A000313200883160313C90047088312031394
:10229A00A30083160313460883120313A2008316AE
:1022AA000313450883120313A1008316031344087A
:1022BA0083120313A000831603134C08831203131B
:1022CA00A700831603134B0883120313A600831671
:1022DA0003134A0883120313A5008316031349083C
:1022EA0083120313A4000A168A15F8240A168A11FF
:1022FA00031880298129C129BF3083120313EB00F7
:10230A008030EA000030E9000030E8008316031349
:10231A004C0883120313EF00831603134B0883122E
:10232A000313EE00831603134A0883120313ED0006
:10233A0083160313490883120313EC000A128A1541
:10234A007C240A168A11831203136B08831603135B
:10235A00C700831203136A0883160313C600831285
:10236A000313690883160313C5008312031368084D
:10237A0083160313C400CB29831603134C08C70022
:10238A004B08C6004A08C5004908C400080083165D
:10239A0003134C0883120313A300831603134B0879
:1023AA0083120313A200831603134A08831203132A
:1023BA00A10083160313490883120313A0000030F7
:1023CA00A7000030A6000030A5000030A4000A16BD
:1023DA008A15F8240A168A110318F429F529062AF7
:1023EA00213083160317D2000030D3000030831641
:1023FA000313CC000030CB000030CA000030C90003
:10240A003D2B831603134C0883120313B100831662
:10241A0003134B0883120313B000831603134A08ED
:10242A0083120313AF00831603134908831203139D
:10243A00AE000030B5000030B4000030B300003008
:10244A00B2000A168A1596220A168A11031C2E2A27
:10245A002F2A402A223083160317D2000030D300D5
:10246A00003083160313CC000030CB000030CA00C2
:10247A000030C9003D2BBF3083120313EB008030BC
:10248A00EA000030E9000030E8004030C4000030C3
:10249A00C3000030C2000030C100CE3083160313DF
:1024AA00CD004D0883120313BE00831603134C0894
:1024BA0083120313BD00831603134B0883120313FD
:1024CA00BC00831603134A0883120313BB00831646
:1024DA000313490883120313BA000A168A159623AE
:1024EA000A168A11831203133D08C8003C08C70064
:1024FA003B08C6003A08C5000A128A1192240A1635
:10250A008A11831203134408EF004308EE004208BD
:10251A00ED004108EC000A128A157C240A168A1179
:10252A00831203136B0883160313CC00831203135D
:10253A006A0883160313CB008312031369088316F0
:10254A000313CA0083120313680883160313C9000E
:10255A00FF30CE070318CF0AFF30CF074C08BC0064
:10256A004B08BB004A08BA004908B9002930CD0017
:10257A004D08BD000830BE000030BF000A168A159B
:10258A0026270A168A11831603133C08CC003B0837
:10259A00CB003A08CA003908C9004C088312031351
:1025AA00EB00831603134B0883120313EA00831606
:1025BA0003134A0883120313E90083160313490815
:1025CA0083120313E8003F30C4003130C300723075
:1025DA00C2001830C100831603134E088312031376
:1025EA00A000831603134F0883120313A1000030BF
:1025FA00A11BFF30A200A30001300A168A159C25F0
:10260A000A168A11831203132308C8002208C70076
:10261A002108C6002008C5000A128A1192240A1647
:10262A008A11831203134408EF004308EE0042089C
:10263A00ED004108EC000A128A157C240A168A1158
:10264A00831203136B0883160313CC00831203133C
:10265A006A0883160313CB008312031369088316CF
:10266A000313CA0083120313680883160313C900ED
:10267A000800831603179801831603136008831250
:10268A000313B100831603135F0883120313B00008
:10269A00831603135E0883120313AF008316031312
:1026AA005D0883120313AE000030B5000030B40099
:1026BA000030B3000030B2000A168A1596220A16B4
:1026CA008A11031C692B6A2BA62B00308312031371
:1026DA00A3000030A2000030A1000030A000831641
:1026EA000313640883120313A700831603136308F2
:1026FA0083120313A60083160313620883120313BB
:10270A00A50083160313610883120313A4000A1693
:10271A008A15F8240A168A11031C942B952B9B2BD5
:10272A00213083160317D2000030D30000308316FD
:10273A000313E0000030DF000030DE000030DD006F
:10274A00982D83160313640883120313B1008316AA
:10275A000313630883120313B0008316031362087A
:10276A0083120313AF008316031361088312031342
:10277A00AE000030B5000030B4000030B3000030C5
:10278A00B2000A168A1596220A168A11031CCE2B43
:10279A00CF2BDA2B3F3083160313E0008030DF00A3
:1027AA000030DE000030DD00982D83160313600828
:1027BA0083120313A300831603135F088312031300
:1027CA00A200831603135E0883120313A100831663
:1027DA0003135D0883120313A0000030A700003022
:1027EA00A6000030A5000030A4000A168A15F824B5
:1027FA000A168A110318022C032CC22C83160313FF
:10280A006408BC006308BB006208BA006108B9002A
:10281A000A168A1119200A168A11831603133C080C
:10282A00831603179C00831603133B0883160317AA
:10283A009B00831603133A08831603179A0083161C
:10284A00031339088316031799001C08831203130C
:10285A00A300831603171B0883120313A20083160F
:10286A0003171A0883120313A10083160317190802
:10287A0083120313A00000300A168A159C250A1633
:10288A008A11831203132308B1002208B000210819
:10289A00AF002008AE0083160313640883120313E3
:1028AA00B50083160313630883120313B400831657
:1028BA000313620883120313B30083160313610818
:1028CA0083120313B2000A168A1596220A168A116F
:1028DA000318702C712C822C213083160317D20016
:1028EA000030D300003083160313E0000030DF000D
:1028FA000030DE000030DD00982D8316031719081A
:10290A00013983160313E500650883160317980037
:10291A0083160313600883120313A3008316031399
:10292A005F0883120313A200831603135E0883123F
:10293A000313A100831603135D0883120313A00077
:10294A000A128A11F3270A168A118312031323081B
:10295A0083160313E000831203132208831603135A
:10296A00DF0083120313210883160313DE00831288
:10297A000313200883160313DD008316031360086C
:10298A00CC005F08CB005E08CA005D08C9000A16C1
:10299A008A11CC210A168A11831603134C0883164E
:1029AA0003179300831603134B0883160317920029
:1029BA00831603134A088316031791008316031319
:1029CA0049088316031790008316031364088312B9
:1029DA000313C40083160313630883120313C3008B
:1029EA0083160313620883120313C20083160313A8
:1029FA00610883120313C100831603171308831295
:102A0A000313C80083160317120883120313C7009F
:102A1A0083160317110883120313C60083160317BC
:102A2A00100883120313C5000A128A1192240A1687
:102A3A008A1183120313440883160317970083121B
:102A4A0003134308831603179600831203134208DD
:102A5A00831603179500831203134108831603177D
:102A6A009400170883160313D40083160317160855
:102A7A0083160313D300831603171508831603134B
:102A8A00D20083160317140883160313D1000A16FB
:102A9A008A1199250A168A11831603135408E0002D
:102AAA005308DF005208DE005108DD0083160317C1
:102ABA0018080319612D622D982D831603136008D7
:102ACA0083120313A300831603135F0883120313ED
:102ADA00A200831603135E0883120313A100831650
:102AEA0003135D0883120313A0000A128A11F32745
:102AFA000A168A1183120313230883160313E000AC
:102B0A0083120313220883160313DF0083120313AD
:102B1A00210883160313DE00831203132008831689
:102B2A000313DD00982D080083160313540883123B
:102B3A000313B10083160313530883120313B0005F
:102B4A0083160313520883120313AF008316031369
:102B5A00510883120313AE000030B5000030B400F0
:102B6A000030B3000030B2000A168A1596220A16FF
:102B7A008A11031CC12DC22DCD2D3F30831603139C
:102B8A00D4008030D3000030D2000030D100FF2FB3
:102B9A00443083120313A3003130A2007230A10023
:102BAA001830A00083160313540883120313A700D6
:102BBA0083160313530883120313A6008316031301
:102BCA00520883120313A5008316031351088312B4
:102BDA000313A4000A168A15F8240A168A11031880
:102BEA00F72DF82D092E223083160317D200003054
:102BFA00D3007F3083160313D4007F30D300FF3015
:102C0A00D200FF30D100FF2F83160313540883121A
:102C1A000313A30083160313530883120313A2009A
:102C2A0083160313520883120313A1008316031396
:102C3A00510883120313A000C430A7003A30A6003B
:102C4A004830A5008730A4000A168A15F8240A1607
:102C5A008A110318312E322E432E2230831603177F
:102C6A00D2000030D300003083160313D4000030A2
:102C7A00D3000030D2000030D100FF2F8316031397
:102C8A00540883120313A3008316031353088312F1
:102C9A000313A20083160313520883120313A1001D
:102CAA0083160313510883120313A0000030A700F0
:102CBA000030A6000030A5000030A4000A168A15CC
:102CCA00F8240A168A11031C6B2E6D2E01306E2E03
:102CDA00003083160313D5005508DC005C0803197D
:102CEA00772E782EAB2E540883120313A300831673
:102CFA000313530883120313A20083160313520803
:102D0A0083120313A10083160313510883120313BA
:102D1A00A0000A128A11F3270A168A1183120313D2
:102D2A00230883160313D40083120313220883167D
:102D3A000313D30083120313210883160313D2004B
:102D4A0083120313200883160313D1003F30831222
:102D5A000313C400B830C300AA30C2003B30C1001C
:102D6A0083160313540883120313C800831603132C
:102D7A00530883120313C7008316031352088312DE
:102D8A000313C60083160313510883120313C500E5
:102D9A000A128A1192240A168A118312031344080A
:102DAA0083160313D40083120313430883160313F1
:102DBA00D30083120313420883160313D20083122B
:102DCA000313410883160313D1005408C70053089C
:102DDA00C6005208C5005108C4000A168A11952077
:102DEA000A168A11831603134708D9004608D80021
:102DFA004508D7004408D6005908BC005808BB004B
:102E0A005708BA005608B9000A168A1119200A1674
:102E1A008A11831603133A08DB003908DA005A08C4
:102E2A0083120313A000831603135B088312031390
:102E3A00A1000030A11BFF30A200A30001300A1636
:102E4A008A159C250A168A118312031323088316EE
:102E5A000313BC0083120313220883160313BB0057
:102E6A0083120313210883160313BA008312031370
:102E7A00200883160313B9005408C0005308BF0082
:102E8A005208BE005108BD000A168A1546220A16C3
:102E9A008A11831603133C08D4003B08D3003A086E
:102EAA00D2003908D1005408BC005308BB005208AC
:102EBA00BA005108B9000130D5005508BD000930E3
:102ECA00BE000030BF000A168A1526270A168A1184
:102EDA00831603133C08CC003B08CB003A08CA000F
:102EEA003908C9005B08CE005A08CD000A168A15AF
:102EFA0058260A168A11831603134C08D4004B0865
:102F0A00D3004A08D2004908D1005C0803198E2F61
:102F1A008F2FFF2F540883120313B1008316031354
:102F2A00530883120313B000831603135208831243
:102F3A000313AF0083160313510883120313AE0061
:102F4A007F30B5007F30B400FF30B300FF30B200ED
:102F5A000A168A1596220A168A11031CB52FB62F4D
:102F6A00C12F003083160313D4000030D300003081
:102F7A00D2000030D100FF2F8316031354088312A6
:102F8A000313DE0083160313530883120313DD00B1
:102F9A0083160313520883120313DC0083160313E8
:102FAA00510883120313DB003F30E2008030E10056
:102FBA000030E0000030DF000A128A15DC210A1610
:102FCA008A11831203135E0883160313D400831233
:102FDA0003135D0883160313D300831203135C08DB
:102FEA0083160313D200831203135B088316031399
:102FFA00D100FF2F0800FF1B0A2883137F188317AD
:10300A000008840A0319FF0A080018308A00040815
:10301A00840A820700340034003480343F34183480
:10302A00723431343F34F034FD3475343E3447342D
:10303A00583463343D34583495341D343C34823426
:10304A00C434AE343A34A834783421343934EF34C1
:10305A00933480343734A0349234A7343534463428
:10306A005634153434340034003400340034C43453
:10307A00FF347F343F348034EF34FF34BE3490342D
:10308A00E134A9343E34EC3482347634BE348234AA
:10309A00AD342B343E340E343C34C334BD3487341F
:1030AA00D13413343D3441347834D334BB345B34B3
:1030BA0041345D342034203400345B3456345D347A
:1030CA00203420340034303430342E343034003458
:1030DA0030342E343034303400345B3400345D34D0
:0230EA000034B0
:1032600064008001840A040603190034040631292D
:103270004130831203139F00C530831603139F0050
:1032800007309C00080083120313A20007122208D3
:10329000803E0A168A154F210A168A1508008312E5
:1032A0000313A100413083120313A000A00B562981
:1032B0005929831203132108A00004300310A00C25
:1032C000FF3E031D5E2920080F39860087168712EE
:1032D00021080F398600871687120800831203130E
:1032E000A800A401A5012008A200A3012208A600AD
:1032F0002308A700281C7D297E2984292608A407E5
:103300000318A50A2708A50701300310A60DA70D6D
:10331000FF3E031D85290310A80C2808031D9129D1
:1033200092297A292508A1002408A0000800831208
:1033300003130716B1292308FF00220884000A1688
:103340008A1500200A168A150A168A154F210A16B0
:103350008A15013083120313A2070318A30A003051
:10336000A3072308FF00220884000A168A150020FC
:103370000A168A15003A031DBE29BF299B29080099
:1033800083120313A40008302402031CC829C9298E
:10339000CC29A001A101F629C530A20022089F0571
:1033A0002408A20002300310A20DFF3E031DD32902
:1033B0000310220DA30023089F040D308312031372
:1033C000A300FB30A200A20BE329A30BE329831285
:1033D00003131F151F19ED29EE29EA291E08A10064
:1033E000831603131E0883120313A0000800831220
:1033F0000313AB00A701A8012008FF3EA900210884
:103400000318013EFF3EAA00372A83120313270840
:103410002B07A2002208840083170008A300A40140
:103420002308A5002408A60029082B07A2002208CB
:1034300084000008A30027082B07A40024088400A8
:10344000230880002508A20029082B07A3002308D1
:103450008400220880000130A7070318A80A003062
:10346000A807FF30A9070318AA0AFF30AA072808EF
:10347000803AA2002A08803A2202031D412A290824
:103480002702031C442A452A052A08008030831697
:103490000313BC06400883120313EB0083160313C7
:1034A0003F0883120313EA00831603133E088312B6
:1034B0000313E900831603133D0883120313E80086
:1034C000831603133C0883120313EF0083160313C0
:1034D0003B0883120313EE00831603133A0883128A
:1034E0000313ED0083160313390883120313EC0052
:1034F0000A128A157C240A168A15831203136B0894
:1035000083160313BC00831203136A088316031384
:10351000BB0083120313690883160313BA008312D6
:103520000313680883160313B900080000308312E0
:1035300003132E05B60000302F05B700803030058C
:10354000B8007F303105B900390838043704360433
:10355000031DAB2AAC2AB42A0030B1000030B00001
:103560000030AF000030AE0000303205B600003051
:103570003305B70080303405B8007F303505B90019
:103580003908380437043604031DC72AC82AD02A4C
:103590000030B5000030B4000030B3000030B2009D
:1035A00035083106031DDE2A34083006031DDE2AE5
:1035B00033082F06031DDE2A32082E060319E12ADE
:1035C000E22AE42A0310E52A0314080083120313F5
:1035D00007128712623083120313A5006530A4001E
:1035E000A40BF02AA50BF02A0330831203138600E4
:1035F00087168712213083120313A5007530A400AB
:10360000A40B002BA50B002B052B8312031387168D
:103610008712C73083120313A4000E2BA40B0D2BAB
:10362000112B8312031387168712C73083120313DB
:10363000A4001A2BA40B192B1D2B02308312031389
:1036400086008716871228300A168A154F210A1617
:103650008A150C300A168A154F210A168A150A1681
:103660008A1105200A168A1506300A168A154F2176
:103670000A168A15080083120313A601A31F412B03
:10368000422B492BA209A309A20A0319A30AA601E6
:10369000A60AA11F4C2B4D2B522BA009A109A00A51
:1036A0000319A10A200821040319572B582B872B33
:1036B000A501A50A662B01300310A00DA10DFF3E48
:1036C000031D5C2B0130A4002408A507A11F692B52
:1036D0006A2B5B2B21082302031D702B200822027A
:1036E000031C732B742B7A2B2008A2022108031CC5
:1036F000A303A30201300310A10CA00CFF3E031D85
:103700007B2B0130A502031D862B872B6A2B2608F5
:1037100003198B2B8C2B912BA209A309A20A031945
:10372000A30A2308A1002208A000080083120313A3
:103730003D08B1003C08B0003B08AF003A08AE00BD
:103740000030B5000030B4000030B3000030B200EB
:103750000A168A1596220A168A15031CB02BB12B5D
:10376000C22B831203133E08840083138001840A52
:1037700080010030BD000030BC000030BB000030D4
:10378000BA00F12B831203133D087F39BF00C0013B
:103790000310BF0DC00D3E0884003F088313800056
:1037A000840A400880003C0D3C0D0139BF00C00177
:1037B0003E0884003F088004840A400880043E08D4
:1037C000840082308007840F00080318000AFF007D
:1037D000FF307F07800084033D0880393F38BD00FB
:1037E000BC13080083120313A601A11FF82BF92BA9
:1037F000002CA009A109A00A0319A10AA601A60A82
:10380000A31F032C042C0D2CA209A309A20A03193F
:10381000A30A0130A4002408A606A701A8012008D5
:1038200021040319142C152C4C2CA501A50A232CBA
:1038300001300310A00DA10DFF3E031D192C013016
:10384000A4002408A507A11F262C272C182C013022
:103850000310A70DA80DFF3E031D282C21082302ED
:10386000031D342C20082202031C372C382C3F2C3B
:103870002008A2022108031CA303A302271401307D
:103880000310A10CA00CFF3E031D402C0130A5022B
:10389000031D4B2C4C2C272C26080319502C512C83
:1038A000562CA709A809A70A0319A80A2808A100E5
:1038B0002708A000080083160313CB01CC01AF2C0E
:1038C0000A3083120313A0000030A10083160313F3
:1038D000450883120313A3008316031344088312BD
:1038E0000313A2000A168A153B230A168A158312AF
:1038F00003132008303E83160313C9004B08460704
:10390000CA004A0884004908831780000130CB07A9
:103910000318CC0A0030CC070A3083120313A0002E
:103920000030A10083160313450883120313A3007C
:1039300083160313440883120313A2000A168A1580
:10394000F2230A168A158312031321088316031320
:10395000C50083120313200883160313C400440810
:103960004504031DB42CB52C602CC82C30308316B4
:103970000313C9004B084607CA004A0884004908D7
:10398000831780000130CB070318CC0A0030CC0726
:103990004C08803AC9004808803A4902031DD22CDD
:1039A00047084B02031CD52CD62CB62C83160313C8
:1039B0004C0883120313A100831603134B088312D0
:1039C0000313A0008316031346080A168A15F7216D
:1039D0000A168A15831603134B084607C9004908BF
:1039E0008400831780014C08C5004B08C400080000
:1039F0000030831203132005A80000302105A90020
:103A000080302205AA007F302305AB002B082A0452
:103A100029042804031D0D2D0E2D162D0030A300A2
:103A20000030A2000030A1000030A00000302405CA
:103A3000A80000302505A90080302605AA007F30A7
:103A40002705AB002B082A0429042804031D292D6F
:103A50002A2D322D0030A7000030A6000030A5002E
:103A60000030A400A31F352D362D5A2D0030A8009C
:103A70000030A9000030AA008030AB002008A80266
:103A80002108031C210F452D462DA9022208031CE5
:103A9000220F4B2D4C2DAA022308031C230F512D5E
:103AA000522DAB022B08A3002A08A2002908A1006E
:103AB0002808A000A71F5D2D5E2D822D0030A800D4
:103AC0000030A9000030AA008030AB002408A80212
:103AD0002508031C250F6D2D6E2DA9022608031C39
:103AE000260F732D742DAA022708031C270F792D8A
:103AF0007A2DAB022B08A7002A08A6002908A500EA
:103B00002808A4008030A3068030A70627082302D7
:103B1000031D942D26082202031D942D2508210241
:103B2000031D942D240820020318972D982D9A2DFB
:103B300003109B2D0314080083120313A800280808
:103B40000319A32DA42DB82DA31FA72DA82DB82D83
:103B50002009AA002109AB002209AC002309AD000D
:103B6000AA0A0319AB0A0319AC0A0319AD0AC02D3E
:103B70002308AD002208AC002108AB002008AA00F1
:103B80002308220421042004031DC72DC82DD12D94
:103B90000030A3000030A2000030A1000030A000DF
:103BA000572E9630A4002408A900E32D0130A4006C
:103BB0002408A90701300310AD0CAC0CAB0CAA0C07
:103BC000FF3E031DDB2DFE302D05031DE82DE92DE5
:103BD000D62D052E0130A4002408A9070130AA071C
:103BE000003003180130AB07003003180130AC0778
:103BF000003003180130AD0701300310AD0CAC0CE0
:103C0000AB0CAA0CFF3E031DFD2DFF302D05031D3F
:103C10000A2E0B2EEA2D172E0130A9020130A40026
:103C20000310AA0DAB0DAC0DAD0DA40B102EAC1BEB
:103C30001A2E1B2E212E023029020318202E212E8F
:103C40000C2E2918242E252E2D2EFF30AA05FF30EC
:103C5000AB057F30AC05FF30AD050310A90C29087A
:103C6000A400A501A601A70118300310A40DA50DFD
:103C7000A60DA70DFF3E031D352E2408AA04250816
:103C8000AB042608AC042708AD0428080319492E04
:103C90004A2E4F2EA31F4D2E4E2E4F2EAD172D0800
:103CA000A3002C08A2002B08A1002A08A0000800ED
:103CB000831603134C0883120313B10083160313F6
:103CC0004B0883120313B000831603134A088312B0
:103CD0000313AF0083160313490883120313AE00C6
:103CE0000030B5000030B4000030B3000030B20046
:103CF0000A168A1596220A168A15031C802E812E12
:103D00008C2E003083160313CC000030CB00003023
:103D1000CA000030C900252F831603134C087F39D1
:103D2000CF00D0010310CF0DD00D4F08CD070318E1
:103D3000CE0A5008CE074B0D4B0D0139CF00D001F4
:103D40004F08CD070318CE0A5008CE07CE1FA92E64
:103D5000AA2EBB2E223083160317D2000030D300C8
:103D6000003083160313CC000030CB000030CA00B3
:103D70000030C900252F4E08803AFF0081307F02B5
:103D8000031DC42E00304D02031CC72EC82E0D2F5C
:103D9000223083160317D2000030D300831603139A
:103DA0004C0883120313A300831603134B088312DA
:103DB0000313A200831603134A0883120313A100FE
:103DC00083160313490883120313A0000030A700D1
:103DD0000030A6000030A5000030A4000A168A15A5
:103DE000F8240A168A150318F62EF72E022FFF3034
:103DF00083160313CC007F30CB00FF30CA00FF30A6
:103E0000C900252F7F3083160313CC007F30CB00F1
:103E1000FF30CA00FF30C900252F831603134E0858
:103E2000D0004D08CF00500DD00CCF0C4C084F06E1
:103E300080394F06CC004D080139CF00CF0CCF0C94
:103E40004B084F067F394F06CB000800831603133B
:103E50003E08C00001300310C00DFF3E031D2B2F94
:103E60000310400D3D0784000A168A150A200A1621
:103E70008A15C1000A168A150A200A168A15C20078
:103E80000A168A150A200A168A15C3000A168A1508
:103E90000A200A168A15C4004408C8004308C7004F
:103EA0004208C6004108C500F12FFF30BE070318C5
:103EB000BF0AFF30BF073E08C00001300310C00D2D
:103EC000FF3E031D5E2F0310400D3D0784000A16C0
:103ED0008A150A200A168A15C1000A168A150A20B0
:103EE0000A168A15C2000A168A150A200A168A15A9
:103EF000C3000A168A150A200A168A15C400440847
:103F000083120313EB008316031343088312031376
:103F1000EA0083160313420883120313E900831691
:103F20000313410883120313E800831603134808A0
:103F300083120313C4008316031347088312031369
:103F4000C30083160313460883120313C2008316AB
:103F50000313450883120313C100831603133C089F
:103F600083120313C800831603133B088312031341
:103F7000C700831603133A0883120313C60083167F
:103F80000313390883120313C5000A128A119224FD
:103F90000A168A15831203134408EF004308EE0043
:103FA0004208ED004108EC000A128A157C240A162A
:103FB0008A15831203136B0883160313C800831238
:103FC00003136A0883160313C700831203136908D7
:103FD00083160313C60083120313680883160313A2
:103FE000C5003E083F04031DF62FF72F552F480844
:103FF000BC004708BB004608BA004508B9000800E5
:02400E00F23F7F
:00000001FF
