:020000040000FA
:060000000A128A110C280F
:10000800FE00030EF5000A08F6000A128A11D32929
:100018000A128A110F28FD01F701F801F901FA0106
:10002800FB01FC0183120313B601B701B801B90142
:10003800BA01BB01BC01BD01BE01BF01C001C101C4
:10004800C201C301C40183010A128A118C2800303D
:100058008A000408840A820700340034003480349B
:100068003F341834723431343F34F034FD3475344D
:100078003E344734583463343D34583495341D3451
:100088003C348234C434AE343A34A834783421341D
:100098003934EF34933480343734A0349234A7346D
:1000A800353446345634153434340034003400348E
:1000B8000034C434FF347F343F348034EF34FF34A9
:1000C800BE349034E134A9343E34EC34823476348E
:1000D800BE348234AD342B343E340E343C34C33415
:1000E800BD348734D13413343D3441347834D33477
:1000F800BB34303430342E343034003430342E3481
:100108003034303400347434653473347434003427
:10011800523083120313A7002708B3004D30A700FD
:100128002708B4005230A7002708B5000030AD00FA
:100138000030AC000030AB000030AA004130B10004
:100148007330B0003330AF003330AE001B3083164D
:1001580003138500F030860087018801831203139A
:100168008601870188018316031381130B108B15F1
:100178008B130B130A128A11EB200A128A110A1226
:100188008A11BF210A128A1100300A128A11E42149
:100198000A128A1157300A128A117C210A128A110E
:1001A80083120313043085060D3083120313A9004C
:1001B800AF30A800B530A700A70BE028A80BE028AF
:1001C800A90BE028E728D4280A128A110C288312E0
:1001D800031307128712623083120313A5006530D8
:1001E800A400A40BF528A50BF528033083120313EC
:1001F800860087168712213083120313A5007530F5
:10020800A400A40B0529A50B05290A2983120313A9
:1002180087168712C73083120313A4001329A40B6F
:10022800122916298312031387168712C7308312DF
:100238000313A4001F29A40B1E29222902308312AC
:10024800031386008716871228300A128A11A02104
:100258000A128A110C300A128A11A0210A128A1174
:100268000A128A11BF210A128A1106300A128A114B
:10027800A0210A128A1108000730F1007D30F00031
:10028800F00B4429F10B442983120313060E01399C
:10029800F000060EF100710C0139F20072077004CB
:1002A800F3007308F4007B08031D5B295C2974299B
:1002B8007403031D602961296829FF30F9070318B1
:1002C800FA0AFF30FA07742902307406031D6D29F3
:1002D8006E2974290130F9070318FA0A0030FA0761
:1002E8007408F0007008FB00060886000B10080070
:1002F80083120313A30007169329230884000A1204
:100308008A112B200A128A110A128A11A0210A12B4
:100318008A11013083120313A2002208A3072308BD
:1003280084000A128A112B200A128A11003A031D2E
:100338009E299F298129080083120313A1004130B7
:1003480083120313A000A00BA729AA298312031361
:100358002108A00004300310A00CFF3E031DAF29A4
:1003680020080F3986008716871221080F39860062
:1003780087168712080083120313071201300A1226
:100388008A11A0210A128A110D3083120313A300C7
:10039800FB30A200A20BCE29A30BCE2908000B1C10
:1003A800D629D729DD290A128A1140210A128A1171
:1003B8000B1076088A00750E8300FE0E7E0E09006B
:1003C80083120313A20007122208803E0A128A1120
:0803D800A0210A128A1108009D
:02400E00F23F7F
:00000001FF
